:020000040000fa
:080000000001040000000000f3
:020000040000fa
:100200008fad20000eff20000e01880000000000ce
:100210000c0007000033230001002000110007003c
:10022000000020000000e000020032000000020098
:10023000000000001e1e0200000000000040da0066
:100240000000fe004440a900601d20000000e00006
:100250000300320000002000a00188004440a800f4
:100260000000060091018800800078000000eb008b
:1002700015003700e280400032a0b4009101ba00be
:10028000e280400032a0b4009102ba00e280400057
:1002900032a0b4000002eb00472bde00f507b200ed
:1002a000602ce10004003a000059eb008301e900f2
:1002b000fdff3e00040037006128e100010032002c
:1002c0000082eb00040007001101ba000200e00008
:1002d000e8ff3a00000006003159ba008301e90046
:1002e0000c0032002159ba008301e90008003200f5
:1002f0000400e00003003a00e280400032a0b400b5
:10030000f5ff370011d9ba008301e900faff3a007e
:100310008100e800e180400032a0b4000000060047
:1003200000000000000000000000000000000000cd
:1003300000000000000000000000000000000000bd
:1003400000000000000000000000000000000000ad
:10035000000000000000000000000000000000009d
:1003600000000000000000000040da000000fe0075
:10037000881f7800020478001b0007000800400076
:100380004f047800000006000000fa00881f780083
:10039000000478003fb99700ea8157008000780098
:1003a000801b200017000700800078000000e0009c
:1003b000020035000040eb0000f4780001007800f6
:1003c0004f0478000080fa000000060080007800ea
:1003d000010037000000e8001004e000fdff3a00d3
:1003e00001005000000006008001eb000200370011
:1003f00061f079008301e800828f5100fcff3a0030
:10040000000006006200fa00889fbe008a9fbe00be
:100410000004be00020578008300780060f92f0018
:100420000f004000b000070088979f0099979f0039
:100430000000eb00a09f9f009a4578000b80fb0016
:100440000000ea00cf04de0050c2b30080cf5500a8
:100450000200320009047800010037000904e900b5
:100460000800e0000b0034001f909700080178009e
:100470008a0078008f9197000300010090979f00f9
:100480000000e000930032002f9897000000440025
:10049000a09f9f000905450050c2b30080cf5500c2
:1004a000040032000b04e000e3ff3a002f989700ad
:1004b000890037000000eb00809f9f00f0979f00ad
:1004c000e0979f00d0979f00c0979f00b0979f0034
:1004d000c09f9f0009003700a0ac200000805000a2
:1004e00000004000e1ab2000e10078004f98970049
:1004f00001007000c09f9f000a05e8001a447800c0
:100500008800fb00a0ac20007c0007008000780081
:100510000000e000f0ff3a00a0c2b300804f54009a
:100520000e003a00bf8897000180e900b08f9f005d
:1005300010007800b09f9f000000e00005003d0023
:100540000000ea00b09f9f004f9897000020a00095
:10055000c09f9f000a05e80010003700b19f9f0070
:1005600003fd2f00f4ff2700080037003f98970095
:10057000840f5000040032006a00b90000004100fe
:1005800003004000b09f9f000a05e8001a01fb002d
:1005900003004100e90f5000f4ff3600e0c2b30051
:1005a0009a4f1000040032000080eb00909f9f00e3
:1005b0008a0478001c0037008a04e800a0c2b30057
:1005c000994f100007003a00bf8897000180e900aa
:1005d000b08f9f0010007800909f9f008a84e800f1
:1005e000110037000000eb00909f9f0003fd2f00db
:1005f000f4ff2700080037001f989700840f500071
:10060000040032006a00b90000004100030040000d
:10061000909f9f008904e8001901fb00030041003e
:10062000e90f5000f4ff3600194478008800fb0001
:1006300000ad2000310007000000e00002003a0099
:1006400000447800010037008904e800a87f9f007b
:1006500080c6b300804f540004003a00994f140044
:100660000a003a006640500006003700c0c6b300da
:10067000804f540005003a00994f140003003a00df
:1006800065404000a07f9f008904e8000905e8005c
:10069000cbfb2f008b8547001901fb0060f92f0071
:1006a0000f0040000084e8008b0178008000780093
:1006b000080078001a0007000000e00005003a007a
:1006c0008b00780008007800580107000000e00067
:1006d00059ff3d000080eb004f05be004f04be00f7
:1006e0000080fa00000006000200fa00f1bf9f003f
:1006f000010878000080fa000000060004003700be
:100700000204e00001003a00000005000000e800db
:1007100010417800814f5100f9ff3a0000000600b7
:10072000889fbe008a1f78000004780001027800cc
:100730008244780003057800e0c6b300804f510082
:10074000d200320015003c006b405000804f510039
:10075000240032000a003c0070405000804f5100dd
:100760000f01320065404000804f5100740032009c
:1007700050c2b300804f510020013a001c013700e5
:1007800040c6b300804f51001b003200654040005e
:10079000804f510019013a001700370030c7b300ed
:1007a000804f5100fe00320007003c0064405000c2
:1007b000804f5100620032000040e800804f51003d
:1007c0000e013a00e700370050c7b300804f5100d8
:1007d0005b00320063404000804f510007013a0047
:1007e000570037009180e900010a780078009000f6
:1007f0009171780007013700a8609000c0c6b3006f
:1008000080cf50000a003a009400780064805000c5
:10081000000a78001000be004f89de00cf91de0094
:100820000002be0002037800820378001300370044
:1008300010c7b30080cf500003003200a0c6b30041
:1008400080cf500006003a00940078006880500085
:10085000000a78003002be002003be000700370007
:100860001480e900000a7800100078000002780087
:10087000cfa2de000503780086037800049cbe004a
:100880000694be00a860900080c6b30080cf5000e0
:100890000e00320020c6b30080cf500005003a00a1
:1008a0000400fb00cf80de000101780082017800a7
:1008b0000a00370040c7b30080cf50000300320069
:1008c0006640400080cf500006003a0004007800e7
:1008d000cf80de000101780082017800009cbe001c
:1008e0000294be003800be002801be00e00f500098
:1008f000e08f5800e00f5900e08f590003003d00e1
:1009000078009000d1c2b3000a00370008109000b0
:100910000018a3000300320078009000b1c2b300b9
:10092000040037000008a300530032007800900054
:1009300001c2b300017578000000e8004d003700e7
:10094000a8609000c0c6b30080cf500006003a00f7
:100950009400780064805000000a78001002be0005
:100960006033b8001300370010c7b30080cf5000c9
:1009700003003200a0c6b30080cf500006003a004a
:100980009400780068805000000a78003002be00b1
:100990002003be00070037001480e900000a780039
:1009a00010007800000278000500200006002000fa
:1009b00007002000049cbe000694be00a8609000c2
:1009c00080c6b30080cf50000e00320020c6b300b6
:1009d00080cf500005003a000480fb000100200099
:1009e00002002000030020000a00370040c7b300c7
:1009f00080cf5000030032006640400080cf50009e
:100a000006003a00040078000100200002002000e7
:100a100003002000009cbe000294be00081090005d
:100a20000038a300140032003800be002801be00c8
:100a3000e00f5000e08f5800e00f5900e08f5900a0
:100a40000d00320080c7b30080cf54000300320095
:100a500080c5b30080cf540007003a0078009000b2
:100a600001c3b300017578008000e80009f5780043
:100a70000080e800700498007800900000004500b5
:100a8000600498008940780042003700a860900018
:100a9000c0c6b30080cf5000250032000a003c00e1
:100aa0006440500080cf50002800320000c0e800b1
:100ab00080cf5000140032006840500080cf5000ba
:100ac00022003a000a00370040c7b30080cf500030
:100ad0001e0032006640400080cf50001b003200f4
:100ae0006940500080cf500018003a0006003700df
:100af0001480e900000a780010007800485c90003b
:100b000008487800450037001480e900000a7800a2
:100b10001002780068089000cf80de0001017800a4
:100b200082017800009abe000292be003b003700ae
:100b30001480e900000a780010017800680890002d
:100b4000cf80de000089be00340037001480e90049
:100b5000000a780010007800680c900008087800ff
:100b60002e0037001180e90080087800100078001e
:100b7000cf80de000101780082017800009cbe0079
:100b80000294be00780090000000450060049800c8
:100b900081c7b30008007800ee0007001f0037008f
:100ba0001480e900000a78001000780060049800c2
:100bb000580990000200e00002003d0003fe07001b
:100bc000090037008000eb006b020700800078000e
:100bd0000000e00003003200680090000080500038
:100be0000100370058089000100c98000b003700e7
:100bf00078009000027578000600370078009000b9
:100c0000800045000904e00001003a0059c2b30029
:100c1000894878000000e800700498000000eb00ac
:100c20004f0578004f04be00000006000400fa00e3
:100c3000889fbe008a9fbe008c1f78000004780049
:100c40000106780070089000f80090000100500044
:100c500088089000010050009808900001005000a2
:100c6000a808900001005000b80890000100500052
:100c7000c8089000810550000002220090bf9f002c
:100c800000032300a0bf9f00081090000028a300cd
:100c900018003a000b00e000160034008b047800c6
:100ca00009057800e28f5400020036002a00200077
:100cb000020037000900e0000b00340058009000eb
:100cc000c80190000a017800ee805700030001007f
:100cd000500498000000e000960032006808900080
:100ce00000004500600c98008a8454004240a9002e
:100cf000ebff3c00780190000200e0000b003400a4
:100d000058009000c80190008c007800030001009a
:100d1000500498000000e00086003200680890004f
:100d2000f800900001004000600c9800880c9000d2
:100d30000900e0001500340009057800e28f540036
:100d4000020036002a002000020037000900e000ff
:100d50000b00340058009000c80190000a01780090
:100d6000ec80570003000100500498000000e000f0
:100d7000700032006808900000004500600c980088
:100d80008a8454004240a900ebff3c0018099000ff
:100d90000200e0000b003400e800900058009000d2
:100da000c801900003000100500498000000e0001a
:100db0006000320068089000980890000100400030
:100dc000600c9800a80c90000900e00015003400a9
:100dd00009057800e28f5400020036002a00200046
:100de000020037000900e0000b00340058009000ba
:100df000c80190000a017800ec8057000300010050
:100e0000500498000000e0004a003200680890009a
:100e100000004500600c98008a8454004240a900fc
:100e2000ebff3c00380990000200e0000d003400a8
:100e3000e800900018089000808040005800900062
:100e4000c801900003000100500498000000e00079
:100e50003800320068089000b80890000100400097
:100e6000600c9800c80c90000900e00015003400e8
:100e700009057800e28f5400020036002a002000a5
:100e8000020037000900e0000b0034005800900019
:100e9000c80190000a017800ec80570003000100af
:100ea000500498000000e000220032006808900022
:100eb00000004500600c98008a8454004240a9005c
:100ec000ebff3c00081090000028a3001b0032003c
:100ed0000b00e000190034008b047800090578004d
:100ee000e28f5400020036002a0020000200370082
:100ef0000900e0000b00340058009000c801900089
:100f00000a017800ee8057000300010050049800a9
:100f10000000e00007003200680890000000450073
:100f2000600c98008a8454004240a90003003400f9
:100f3000eaff37000080eb00010037000000eb0003
:100f40004f0678004f05be004f04be000080fa0037
:100f5000000006002f03b000889fbe008a9fbe00dd
:100f60008c9fbe008e1f780000077800d0aa20005a
:100f7000c0b79f0080c5b30080cf5000080032008a
:100f8000c2a92000c2b79f007740400080cf500028
:100f900003003a0083002000b3b79f000a00370027
:100fa00080c7b30080cf500005003200a4002000ad
:100fb000b4b79f0080c5b30080cf500002003a0054
:100fc00005012000b5b79f003e04be002e05be00ff
:100fd00040c6b30080cf500003003200654040009f
:100fe00080cf50000b003a00e00f5400e08f5c000f
:100ff000e00f5d00e08f5d0006003d006000b8007e
:101000006011b80008045000898458000a0559008e
:101010008b855900bfb39700e88f5300030032005f
:10102000f08f530045003a000200370036002000e0
:101030000100370046002000e00f5400e08f5c0004
:10104000e00f5d00e08f5d0005003a005e08900053
:1010500081012000a1b79f000000e00008003200dd
:101060003fb197000200e90008006000cfb197008f
:101070006340780090df9f0074012000a4b79f00b8
:10108000860278008502e900050033008b05d10057
:101090000a85d3008984d3000884d300f9ff370080
:1010a000089fbe000a97be00afb397000700e90093
:1010b00021fc2f008f804000008240003fb197004c
:1010c0008202e90012003700afb397008703e900fe
:1010d000a7b79f0000806200cfb0970061527800f0
:1010e0003e00be002e01be00860378008703e900a3
:1010f000050033008381d1000281d3008180d300b9
:101100000080d300f9ff3700009fbe000297be00a9
:101110003e00be002e01be00e00f5000e08f5800e0
:10112000e00f5900e08f5900d6003400afb39700ac
:101130000700e000e4ff3c00d2003700ae60900002
:1011400080c6b30080cf50000b00320006003c0088
:101150000104e000080032006640500080cf5000db
:1011600073003a0004003700c0c6b30080cf5000bf
:101170006f003a0031003700080178000800e000f5
:1011800005003a005e08900081012000a1b79f0091
:101190000000e00009003200bfb197001100090013
:1011a0000381d8008000fd004fb2970064407800b2
:1011b00090df9f0075012000a5b79f00bfb3970087
:1011c000110009000781d80080017800afb09700b6
:1011d0000100e90022fc2f000f0141000002410044
:1011e0000c003700bfb29700110009008501d8003c
:1011f00000017800afb397008703e900a7b79f000d
:101200000590b90000805100cfb09700615278007e
:10121000820178000300e000030034002fb1970042
:101220000200e000efff3c0003007800cf80de000a
:1012300001017800820178003a0037000806be00fc
:10124000e00f5400e08f5c0005003a005e0890005b
:1012500083012000a3b79f000000e00009003200d6
:101260003fb297006121b9000c00be006402070084
:10127000cfb297006540780090df9f007701200093
:10128000a7b79f003fb297006121b9000c00be00d4
:101290004b0207000006be00afb297000500e90050
:1012a00027fc2f008f8343008083430097b79f0064
:1012b000110037003fb197006114b9000801be006a
:1012c0000c00be00dc0107000005be00afb19700b6
:1012d0008301e900a3b79f000801be00b00007002a
:1012e000000056001fb29700cfb2970065527800f9
:1012f00094b79f000a06be00e00f5600e08f5e0024
:1013000003003400afb397000700e000e9ff3c00a2
:101310004feade00cfa2de000c00be000401780020
:1013200084017800009fbe000297be005500370080
:10133000e00f5400e08f5c00e00f5d00e08f5d0087
:1013400005003a005e08900081012000a1b79f00cf
:101350000000e0000d0032003fb19700020278006b
:10136000cfa2de0005037800860378000800be00e7
:101370000a01be00a60207004fb297006440780041
:1013800090df9f0075012000a5b79f003fb1970037
:1013900002027800cfa2de00050378008603780001
:1013a0000800be000a01be0092020700009fbe00b6
:1013b0000297be00afb197000300e90024fc2f00a4
:1013c0000f0242000006420020003700bfb2970023
:1013d00005047800cfc4de00090578008a0578008e
:1013e0000802be000a03be005fa89700efa897009e
:1013f0007fa997008fb1970089020700d0b79f009f
:10140000e1b79f00f2b79f0083bf9f00afb3970083
:101410008703e900a7b79f000802be000a03be00c9
:10142000050307005faa970000005200cfb29700a3
:10143000655678005fb09700efb097007fb19700d6
:101440008fb99700009fbe000297be003e00be000d
:101450002e01be00d0af9f00e1af9f00f2af9f0012
:1014600083b79f00e00f5000e08f5800e00f590055
:10147000e08f590003003400afb097000100e00096
:10148000d2ff3c003fb19700e80f510013003a0033
:101490000e1090000038a30010003200afb197008a
:1014a000f78f510006003e0024fc2f000f0242007f
:1014b0008300420000c3b300914f100007003200c8
:1014c000afb297008502e900a5b79f0000c3b30043
:1014d00027fc2f008f83430080f37a00afb1970081
:1014e00078811100120f98006e00900024fc2f00ec
:1014f0000f02420083004200bbfb07001e09900060
:101500005e089000800f510006003d000200500070
:10151000000f98000e1090000040a10000179800e6
:101520000f0037000000e0000d003d000e1090009d
:1015300074006000f00f500009003a007e0890002f
:10154000fe009000010050008e0890000100500045
:10155000020050004240a90001003400000f980032
:101560004f0778004f06be004f05be004f04be0077
:101570002f03b100000006008001eb0004003700db
:101580008301e80090cf1000040032000000e80062
:10159000828f5100faff3a000000eb0000000600c5
:1015a000020ab900001bb9000200b8008100420025
:1015b0008100430000000600889fbe008a9fbe0095
:1015c000010578000100e0000400350008003c003f
:1015d0000000e0002000320005003700600010002d
:1015e000e080180002003b0001f02c001a003700d8
:1015f0000004be006011b8006b0920000982cf0012
:10160000020039000882cf000441b0006942520054
:101610000e00320008003b0082817100610164000d
:101620008904d1000884d3008b05e8000442e80057
:10163000f9ff3a00050037000804440089844c0093
:101640008b05e9000442e900fbff3a0009010700ad
:101650000af0a70001f0a0004f05be004f04be0035
:1016600000000600889fbe008a9fbe008c1f780085
:10167000260107002d01330003866c006450e10051
:10168000240032006420e100270032006150e100b4
:10169000220032006120e100210032008b854200ef
:1016a000eb07b1000134b800003ab800080442006a
:1016b00089844a00013ab8000030b80088804000b0
:1016c00009014a0004003300000040008180480006
:1016d000020149008b05e900c909dd0083017000a2
:1016e0000100320013002000c814de004814dd00a1
:1016f0004709de001200b200c808de00088470004e
:10170000dc00070001f0a1000cf0a70001f0a00030
:101710000f0137006120e100110132000801be0015
:101720000200be00f7ff37006150e100fcff3a0005
:101730000b013700889fbe008a9fbe008c1f780077
:10174000f2000700f900330003866c006450e100ea
:101750002e0032006420e100330032006150e100cd
:101760002f0032006120e1003100320085855500f4
:10177000eb07b00009002000080420000500370036
:101780000804440089844c000a0031000603430029
:1017900087834b000001530081815b00f8ff330019
:1017a0000203be000800a0000804440089844c0025
:1017b000f6ff3900c639dd008301730001003200f5
:1017c000130020008904d1000884d3000998a300e5
:1017d000050032000800a7000300a0008904d10022
:1017e0000884d3008b05e8008904d1000884d30065
:1017f0000001eb000281d2009e00070001f0a10071
:101800000cf0a70001f0a000d10037006420e10037
:10181000d30032000801be000200be00f7ff37000f
:101820006120e100ce0032006000b800f3ff370015
:101830000000200001f82700f0ff370003f0a200ad
:10184000889fbe008a9fbe008c1f7800af000700f3
:10185000b60033006450e1004f0032006420e10024
:101860005200320003826c0007003b000905d000e3
:101870000306d000820f54000c065d000200390000
:101880000200320089017800030678008582550045
:1018900004003d000003fd008103fd008502ea0015
:1018a0008b854200840f720002003b006000100034
:1018b000e08018006011b8000005eb007a28e10014
:1018c0000a00390006007800c75ddd00f707b200a6
:1018d000878075002d003700828171000a01780031
:1018e000610560008180d1000080d3008502e9009d
:1018f000f9ff3b00060440008784480002003b00db
:1019000060041400e0841c000988a3000700320072
:101910008a81710082817100610164008904d100b3
:101920000884d3008b05e800170037000978a3006e
:1019300013003a000b00e000130034008b05e900af
:101940000804440089844c000a4474000978a30008
:101950000d003a000b00e000070034008b05e900a1
:101960000804440089844c0001003a000b00200068
:101970000978a300f7ff32000001eb0002003700f6
:10198000828171000a0178003a0007000cf0a7007c
:1019900001f0a0006e0037006420e10002003a0070
:1019a000838f6c006e0033000801be000200be0091
:1019b000670037000001be006c0007000470a7003c
:1019c00003f0a1006509b100160032000d003500da
:1019d0006828e10006003500f0ff2f00f1ff270026
:1019e0000300e00013003b00010028000000050098
:1019f00000004000818048008502e900fcff3a00b9
:101a000008003700f88f420002003c008000eb0025
:101a1000000005008100d1000080d3008502e800ad
:101a2000fcff3a000300e00002003b0060001000f1
:101a3000e080180000000600839f68000100e000bd
:101a400002003d0060001000e08018000300e0008c
:101a500002003d0060011100e081190058000700fc
:101a60004f00e00002003b0060001000e080180022
:101a70000000060081002000618055000b003d0041
:101a80000b00200061fe2f000100e1001d0034006a
:101a900082817100610164008904d1000884d3004f
:101aa0000000e800faff3a007100200061006400c5
:101ab000030070000200600009003200610444006d
:101ac000e0844c000988a500050032008b05e80081
:101ad0006808e10002003a008904d1000884d300bc
:101ae000f20f20000258e10005003d00c75ddd0057
:101af000f907b20089807500080078000000060030
:101b00000bf827008b007800000005000004be00e1
:101b1000160007000003be000405be000200be0060
:101b200012000700844f7500000006000200be008e
:101b30006450e100050036006420e1000200360038
:101b40000968a30001003a000800be000160a0007f
:101b50004f0678004f05be004f04be00000006008f
:101b6000f0ff2f00f1ff2700f9ff3700c70ade0062
:101b7000f107b200f50fb20008003200e1cf4200d9
:101b8000020032000170a00024000500810f7000e7
:101b9000010032000408050044000500810f7000b8
:101ba00002003a00140005008502e9000000400030
:101bb00081c04800fcff3b000170a000240005002c
:101bc0006022b800060220000000d0008180d20010
:101bd0000482d2008582d2000000a00002025200de
:101be00083825a00030031000202420083824a00cd
:101bf0000000a1000603e900f3ff3a000000060020
:101c0000efff07000400be0000000600881f7800f8
:101c1000000478005001be004000be0004004000f7
:101c2000858048000601490087814900009cbe006c
:101c30000294be000400e1000588e1000690e10086
:101c40000798e10002003100680044001008e80035
:101c50004f04780000000600f4874700889fbe000c
:101c60008a9fbe008c9fbe008e1f78000205be00ba
:101c70000004be00d4b79f00e5b79f00f6b79f00f1
:101c800087bf9f000000eb00c0b79f00b0b79f0068
:101c9000a0b79f0090b79f0080b79f000d04200061
:101ca000bfb097004fb09700000140000000e00077
:101cb0000f003d004f08de0000007100c0b79f001c
:101cc0009e00070001003d0012002000a100070057
:101cd00001003d0012002000a6000700b10007002f
:101ce000b60007000f004000c8ff070022003700c1
:101cf0004f08de0000067100ccb79f008f00070080
:101d000001003d00120020009200070001003d008c
:101d10001200200097000700a20007000fb29700f2
:101d20009fb297002fb39700bfb39700a900070099
:101d30000000520081805a0002015b0083815b0039
:101d400080b79f0091b79f00a2b79f00b3b79f00d5
:101d50000007eb009f0007000020e10001a8e10060
:101d600002b0e10003b8e100010031001e002000d4
:101d70000e005600c0b79f004fb297000400e0006d
:101d80000700350010002000010020006011b8009d
:101d900008047000898470000a0571008b85710049
:101da0008d06e900beff3a000400e00003003d009c
:101db000820007000f00400094ff07004fa8970023
:101dc0000000e00004003a000fb497009fb49700b1
:101dd0002fb59700bfb59700940007004f07780014
:101de0004f06be004f05be004f04be004f01b100bc
:101df00000000600881f780018002000881f780067
:101e000095ff07008f87e9004f0478000000060067
:101e1000801feb0090ff07008f87e900000006009d
:101e2000889fbe008a9fbe008c1f78006e0007004e
:101e300007003d0073000700e00f5b00e08f5b00d0
:101e400007003d00320007000006eb0004003700e9
:101e50003400070002003d002a0007001c0020009b
:101e600072000700e3ff07000203be000002be008d
:101e70000c00e00001003200220007000400be0058
:101e80000601be004f0678004f05be004f04be009d
:101e900000000600889fbe008a9fbe008c1f78004d
:101ea0005100070005003d0056000700e00f5b00f1
:101eb000e08f5b0006003d000400370019000700ba
:101ec00003003d006000b8006011b800100007007a
:101ed00056000700ceff07000203be000002be004e
:101ee0000c00e00001003200060007000400be0004
:101ef0000601be004f0678004f05be004f04be002d
:101f0000000006006000b8006011b8000000370053
:101f10000402500085825800060359008783590047
:101f2000000006000006eb00e00f5200e08f5a00b0
:101f3000e00f5b00e08f5b000000060001804000c6
:101f400090b79f000001eb008fb097000100e00008
:101f5000000006000200700090b79f000180400062
:101f600080b79f000001eb00ffa897000100e00090
:101f7000000006000200700080b79f000180400052
:101f80006faa9700cf20de0001007000f0af9f0025
:101f900004024200250007004f18de000002720014
:101fa00000000600e4af9f000804440089844c0050
:101fb0000a054d008b854d00000006003fb29700da
:101fc000cfb297005fb39700efb3970000fe2f00ea
:101fd000000006003fb09700cfb097005fb19700b8
:101fe000efb19700000006000205be000004be002d
:101ff000e00f5000e08f5800e00f5900e08f5900cb
:10200000000006006000b8006011b800080450002d
:10201000898458000a0559008b8559001c0020004e
:10202000e00f5200e08f5a00000006000800be00da
:102030000a01be0000000600889fbe008a9fbe0005
:102040008c1f78000205be000004be000006eb00f5
:10205000e00f5000e08f5800e00f5900e08f59006a
:1020600007003d006000b8006011b800080450008f
:10207000898458000a0559008b8559001c002000ee
:10208000e00f5200e08f5a00e00f5b00e08f5b0032
:1020900002003d000f0007000c00a2000800be0077
:1020a0000a01be00120007000203be000002be00cb
:1020b0000c00e00001003200060007000400be0032
:1020c0000601be004f0678004f05be004f04be005b
:1020d000000006006000b8006011b8000402500063
:1020e00085825800060359008783590000000600c6
:1020f000889fbe008a9fbe008c9fbe000404b8006b
:102100000506b8008904460060854e000606b80042
:102110000a054600e0854e000706b8008b0546001c
:10212000040eb800890446000a854e00e0854d0083
:10213000050eb8000a0546008b854e00060eb80055
:102140008b0546000416b8000a0546008b854e0034
:102150000516b8008b054600041eb8008b05460026
:102160000800be000a01be004f06be004f05be00bb
:102170004f04be00000006004400f800040f2000d9
:10218000240288000000e9001201c300008008005a
:102190000200000031027800b20278001201c00093
:1021a0000000cd004400f900000006004400f800e3
:1021b000040f200024028800010278000000e900da
:1021c0000080080004000000b20278000500ca0088
:1021d000b30278000500c9003100cc00040078008b
:1021e0004400f900000006004400f800040f20003d
:1021f00024028800811f78000000e90000800800a8
:102200000300000032027800b30278001301c0001e
:102210003100cd004f0078004400f90000000600b6
:10222000889fbe008a9fbe008c9fbe004400f800bd
:102230000d0f20002d028800830678000106e900ba
:102240008205e90081804000020141000000e900b0
:1022500010003500050578000b8008000a0000001a
:10226000040478008a0478001201c3000c8008007e
:102270000300000038037800990378001201c600bb
:10228000828444003300cd000a85e8000102420048
:10229000eeff37000d0078004400f9004f06be0045
:1022a0004f05be004f04be00000006000100b8004c
:1022b0000000e9004400f800010f2000210288001e
:1022c000820078000080080004000000b30278005b
:1022d0000500ca00b40278000500c9003200cc0035
:1022e000010078004400f900000006004400f800f6
:1022f000040f200024028800811f78000000e900fc
:10230000030278000080080002000000b20278009a
:102310001301c0003100cd004f0078004400f900e7
:10232000000006004400f800020f2000220288008e
:102330000000e9001201c300008008000100000055
:10234000310278001001f0000000cd004400f900d7
:042350000000060083
:020000040000fa
:0200000401f009
:04000000fabf000043
:020000040000fa
:0200000401f009
:04000400ff7f00007a
:020000040000fa
:0200000401f009
:04000800fffb0000fa
:020000040000fa
:0200000401f009
:04001400ffff0000ea
:020000040000fa
:10000800b4010000b4010000b4010000b401000014
:10001800b4010000b4010000b4010000b401000004
:10002800b401000016360000b4010000f62c0000f0
:10003800b4010000b4010000b4010000602d00000c
:10004800b4010000882f0000c22f000060300000bb
:10005800b4010000b4010000b4010000b4010000c4
:10006800b4010000b4010000b4010000b4010000b4
:10007800b4010000f22700009a2d0000b40100002e
:10008800942e0000ce2e0000b4010000b401000040
:10009800b4010000b4010000b4010000b401000084
:1000a800b4010000b4010000b4010000b401000074
:1000b800b4010000b4010000b4010000b82d000034
:1000c800b4010000b4010000b4010000b401000054
:1000d800b4010000b4010000b4010000b401000044
:1000e800b4010000b4010000b4010000b401000034
:0800f800b4010000b401000096
:020000040000fa
:10010800b4010000b4010000b4010000b401000013
:10011800b4010000b4010000b4010000b401000003
:10012800b401000016360000b4010000f62c0000ef
:10013800b4010000b4010000b4010000602d00000b
:10014800b4010000882f0000c22f000060300000ba
:10015800b4010000b4010000b4010000b4010000c3
:10016800b4010000b4010000b4010000b4010000b3
:10017800b4010000f22700009a2d0000b40100002d
:10018800942e0000ce2e0000b4010000b40100003f
:10019800b4010000b4010000b4010000b401000083
:1001a800b4010000b4010000b4010000b401000073
:1001b800b4010000b4010000b4010000b82d000033
:1001c800b4010000b4010000b4010000b401000053
:1001d800b4010000b4010000b4010000b401000043
:1001e800b4010000b4010000b4010000b401000033
:0801f800b4010000b401000095
:020000040000fa
:102354002450000053520000463100003030000089
:102364002c3000002c3100003932000030300000e5
:102374002c3800002c3100002c3000002a330000df
:10238400390d00000a00000009000000860000006a
:10239400004b0000000800000100000000000000e5
:1023a4003b0a00003a0a00003d0a00003c0a000013
:1023b400450a0000440a0000390a0000380a0000f7
:1023c400370a0000360a0000280a0000280a000024
:1023d400280a0000280a0000280a0000280a000031
:1023e400280a0000280a0000280a0000280a000021
:1023f400280a0000280a00002d0a00002c0a000008
:102404002b0a00002a0a0000310a0000300a0000ea
:102414002f0a00002e0a0000280a0000280a0000e3
:10242400280a0000280a0000350a0000340a0000c7
:10243400330a0000320a0000280a00003f0a0000a4
:102444003e0a0000410a0000400a0000280a000079
:10245400280a0000430a0000420a0000280a00007b
:10246400280a0000280a0000280a0000280a0000a0
:10247400280a0000280a0000280a0000280a000090
:10248400280a0000280a0000280a0000280a000080
:10249400280a0000280a0000280a0000280a000070
:1024a400280a0000280a0000280a0000280a000060
:1024b400280a0000280a0000280a0000280a000050
:1024c400280a0000280a0000280a0000280a000040
:1024d400280a0000280a0000280a0000280a000030
:1024e400280a0000280a0000280a0000280a000020
:1024f400280a0000280a0000280a0000290a00000f
:10250400460a0000280a0000280a0000280a0000e1
:10251400000000009201000024030000b504000044
:1025240046060000d607000064090000f10a000016
:102534007c0c0000060e00008d0f0000121100003c
:1025440094120000131400009015000009170000f5
:102554007e180000ef1900005d1b0000c61c00007f
:102564002b1e00008c1f0000e72000003d2200000d
:102574008e230000da2400002026000060270000db
:102584009a280000ce290000fb2a0000212c00001c
:10259400412d00005a2e00006c2f00007630000000
:1025a40079310000743200006833000053340000b5
:1025b4003735000012360000e5360000b037000061
:1025c400713800002b390000db390000823a00002a
:1025d400213b0000b63b0000423c0000c53c00002b
:1025e4003f3d0000af3d0000153e0000723e00007c
:1025f400c53e00000f3f00004f3f0000853f000034
:10260400b13f0000d43f0000ec3f0000fb3f00005e
:102614000040000025690000202d00002025000056
:10262400692000002d200000256900000a00000038
:10263400257300000a250000692000002d200000f9
:1026440025690000202d00002025000069200000dd
:102654002d20000025690000202d00002025000009
:10266400690a0000006c0000617400003a20000058
:10267400256c0000692c0000206c00006f6e0000c7
:10268400673a0000202500006c6900002c2000003f
:10269400616c0000743a0000202500006c690000a1
:1026a4000d0a0000726d0000617400003a20000001
:1026b400256900002c200000256900002c20000062
:1026c400256900002c200000256900002c20000052
:1026d400256900002c200000256900002c20000042
:1026e400256900002c200000256900002c20000032
:0c26f400256900000d0a00000000000035
:020000040000fa
:102700000000fa000080fa00000006000a00fa004b
:102710002007980031079800420798004e0090006b
:1027200064004000900078003e0090000080e800c7
:10273000100078000180b900008fbe001e01be00ad
:102740004e0090000080e800900078003e0090006d
:1027500064004000100078000180b90000005100c2
:1027600081805900008fbe001e00be004209dd00be
:10277000ce00de00810071004200dd00008fbe004f
:102780009e0090002e009000010878004e009000fe
:10279000900078003e009000640040001000780037
:1027a0000180b900008fbe001e01be004e009000e7
:1027b00064004000900078003e0090001000780017
:1027c0000180b9000000510081805900008fbe00d7
:1027d0001e00be004209dd00ce00de008100710057
:1027e0004200dd00008fbe002e0090008080e800d7
:1027f0001e009000800878004e0090000080e800e5
:10280000900078003e009000100078000180b90030
:10281000008fbe001e01be004e00900090007800a8
:102820003e0090000080e800100078000180b900b0
:102830000000510081805900008fbe001e00be00c4
:102840004209dd00ce00de00810071004200dd00a3
:10285000008fbe002e009000e40040001e0090009b
:10286000800878000080fa00000006000200fa00ec
:10287000a04b80008080d100b04b80000080d10050
:1028800080805000904a800000804000e04788002f
:10289000f04b80008080d100004c80000080d1008f
:1028a00080805000904a800000804000f0478800ff
:1028b000504c80008080d100404c80000080d100ce
:1028c00080805000904a80000080500000488800be
:1028d00002488000f1478000e0478000c104070003
:1028e00080468800804680000000d100000f7800fc
:1028f0001e00e000240032001e017800e047800046
:10290000cf80de00cd09dd00c300de0081807100d4
:102910004d00dd00811f7800110009004208d80039
:10292000cf007800904688001e017800f0478000b4
:10293000cf80de00cd09dd00c300de0081807100a4
:102940004d00dd00811f7800110009004208d80009
:10295000cf007800a04688001e0178000048800063
:10296000cf80de00cd09dd00c300de008180710074
:102970004d00dd00811f7800110009004208d800d9
:10298000cf007800b04688000080fa000000060002
:102990000000fa00b04a80008080d100c04a800068
:1029a0000080d1000080500060498800004b80000a
:1029b0008080d100104b80000080d100008050004a
:1029c00070498800504b80008080d100604b8000af
:1029d0000080d1000080500080498800c292200011
:1029e000818d200030002000e3fd07000000400042
:1029f000a0488800e18d2000c29220003000200015
:102a0000ddfd07000000ea0000004000b04888003b
:102a1000418e2000c292200030002000d6fd070029
:102a2000000040008000780010832f0000804000ec
:102a3000c04888000080fa00000006000a00fa0082
:102a400020079800310798003e0090004300de0008
:102a500030079800ae0090003e0090000008b900da
:102a6000008fbe001e009000f10f500003003400e4
:102a70000000240040079800180037001e00900056
:102a8000f10f400003003d0002002c0042079800b7
:102a9000120037001e00be004b09dd004500de00bd
:102aa00000007100c588de00008fbe009e00780027
:102ab000803920000008b900008fbe001e00be0053
:102ac0004509dd00cb00de00810071004500dd001e
:102ad000008fbe001e009000400798004e0090003e
:102ae0000080fa00000006000000fa00881f78004d
:102af00068498000f150800050498000cfff0700f6
:102b0000000054006049880088498000f15080002e
:102b100030498000c9ff0700000044008049880058
:102b20007049800080007800c050800000004000a4
:102b300000804000704988004f0478000080fa004f
:102b4000000006003000fa00e3902000c28f200051
:102b5000619220003000200094fd07008390200047
:102b60006292200021902000300020008ffd07009d
:102b7000f8004700a38c20002290200030002000a5
:102b800099fd0700e6004700000024008008980037
:102b900066004700800890006600470041009800ea
:102ba00066004700c00090006600470001087800fa
:102bb0007800470090007800780047001000780007
:102bc0000181b9007800470090009000780047002c
:102bd000100090000180b90002014000838148008c
:102be00078004700a0009000780047002000900087
:102bf0000180b9000200400083804800100798005f
:102c0000210798001e009000ae0090004209dd00f0
:102c10004e00de0000007100ce08de003200200011
:102c2000110009000280d800800078000000240014
:102c3000008f400078004700100078001e00b900a7
:102c40004209dd004e00de0000007100ce88de008b
:102c5000800078007800470001087800780047007d
:102c6000100090001e00b9004209dd004e00de0099
:102c700000007100ce88de008000780078004700f8
:102c80001100980078004700200090001e00b90055
:102c90004209dd004e00de0000007100ce88de003b
:102ca00080007800780047002100980078004700f5
:102cb000200090008000ea006600470011009800a4
:102cc00078004700900090006600470021009800bf
:102cd00078004700a000900066004700310098008f
:102ce00078004700100078008000ea006600470086
:102cf0005100980078004700100090008000ea0022
:102d00006600470061009800780047009000780056
:102d1000660047007100980066004700fe0047000b
:102d200080027800848d200081017800320020002c
:102d3000310020003000200039fd07007e004700f0
:102d4000fe0047000002780081017800828d20009b
:102d5000310020003000200054fd07000080fa0000
:102d6000000006001600fa00e28d2000818d200090
:102d70003000200000fd07000000ea00804a8800c3
:102d8000804a8000e28d2000e40047008001780046
:102d90003000200055fd0700814a80006400470094
:102da0006600400081017800828d2000800078005c
:102db000300020004dfd070064014700e40047009b
:102dc000838d200030002000f8fc0700e28d2000f9
:102dd000640047006602400064004700e6004000cf
:102de000820178000401780030002000effc070029
:102df0006400470066014000640047006c0040002a
:102e0000e400470041fe0700e400470030002000d6
:102e100044fd070010079800010026001e009000e6
:102e2000008f500064014700e40047009e017800d5
:102e3000300020002dfd07006400470064014700ba
:102e400080017800818d200030002000d7fc070031
:102e500064004700e60040003000200031fd07001c
:102e600010079800010026001e009000008f5000ff
:102e7000640047006601400064004700e60040002f
:102e80009e0178003000200018fd07006400470014
:102e9000e60140006400470066014000e18d20002b
:102ea00030002000c1fc070064004700ec00400037
:102eb000300020001bfd07001007980001002600cd
:102ec0001e009000008f5000640047006c0140001d
:102ed00064004700ec0040009e01780030002000b4
:102ee00002fd070064004700ec0140006400470059
:102ef0006c014000418e200030002000abfc070038
:102f00000080fa00000006000000fa00428e200057
:102f1000c1922000e0932000fcfd07000080fa0031
:102f2000000006000000fa00c054800001402000ac
:102f3000010060000000e0001700320091508000a6
:102f400060092000808f50000c0036002293200082
:102f50008193200040942000ecfd0700858d200027
:102f600044942000a394200032002000310020006f
:102f700010002000aafc0700060037000000eb004c
:102f8000704a8800704a8000604a8800604a800069
:102f9000504a8800994aa9000080fa000000060003
:102fa0000a00fa0081468000903e2000808f500089
:102fb00005003e000040200010079800005020004f
:102fc000000f780011003700814680003072220027
:102fd000808f500009003e00804680004300de00e4
:102fe0004300dd0010079800804680004300de00ab
:102ff0006a00b900000f780004003700008022004a
:103000001007980000202300000f78009e01900018
:10301000a29420008190200030002000b3fc070023
:10302000e40047009e017800e29320003000200079
:10303000aefc070064004700800178008290200009
:10304000819020003000200058fc0700814680005d
:10305000f0182000808f50004e003e00d2488000c3
:10306000e3488000f1498000001020000088b9008a
:103070004d0add004300de0000007200c388de0060
:103080000200400083804800d0488800e148880062
:10309000f248800003498000014a800000102000af
:1030a0000088b9004d0add004300de000000720018
:1030b000c388de000200400083804800f04888009a
:1030c000014988001249800023498000114a80008c
:1030d000001020000088b9004d0add004300de002a
:1030e00000007200c388de000200400083804800b8
:1030f0001049880021498800d2488000e3488000b8
:10310000514a8000000220000088b9004d0add000d
:103110004300de0000007200c388de0002004000b1
:1031200083804800d0488800e1488800f248800049
:1031300003498000614a8000000220000088b90035
:103140004d0add004300de0000007200c388de008f
:103150000200400083804800f04888000149880050
:103160001249800023498000714a8000000220003b
:103170000088b9004d0add004300de000000720047
:10318000c388de00020040008380480010498800a8
:1031900021498800e04880004380de0070488800b4
:1031a000004980004380de0080488800204980007c
:1031b0004380de00904888000080fa00000006008e
:1031c0000600fa0010079800210798002e009000d2
:1031d0009e009000008f4000303a23009e0f1000a8
:1031e00002003600303a2300000f7800e0a32200ee
:1031f0009e0f100002003e00f0a32200000f780096
:103200001e0078000080fa00000006000e00fa00a0
:1032100081468000a03e2000808f50003b00360099
:10322000804680000000d100000f7800e8004700d1
:1032300083902000228d200030002000eafb070050
:1032400068004700100078007e00b9002007980051
:10325000310798001e0178002e009000be009000fb
:10326000811f7800110009004208d800cf007800c3
:1032700010079800504680009e009000d0ff070085
:103280005046880068004700100090007e00b9009a
:1032900020079800310798001e0178002e0090004a
:1032a000be009000811f7800110009004208d8007c
:1032b000cf00780010079800604680009e009000c4
:1032c000bfff0700604688006800470020009000ac
:1032d0007e00b90020079800310798001e01780091
:1032e0002e009000be009000811f780011000900a0
:1032f0004208d800cf007800100798007046800080
:103300009e009000aeff0700704688000080fa0023
:10331000000006000000fa006e040700f2fd07003e
:1033200008fe07008ffe0700f7fe0700fdfe0700fe
:103330001bff0700b5ff07000080fa000000060031
:103340000600fa00204798002e4090000000fb0085
:10335000000f78001e00e00012003500000420007d
:103360009e0f100008003400000820001e005000ce
:1033700080004000a0282900008040001000780054
:10338000200798001b0037001e00780080004000d6
:10339000a028290000804000100078002007980035
:1033a000140037001e0fea00000420009e0f1000da
:1033b00009003400000820001e005000800040007a
:1033c000a028290000804000100078000000ea00da
:1033d00020079800070037001e007800800040009a
:1033e000a028290000804000100078000000ea00ba
:1033f000200798002e0090000080fa0000000600d0
:103400000800fa00881f78002007980000c2b30067
:103410003047980000c4b3002047980000c2b300b2
:10342000104798002e0090000000e00003003400d8
:1034300010c0b300004f78000500370000c0eb005b
:10344000004f78002e0090000000ea00200798004e
:10345000ae00900000002400808f50002d003a0044
:103460001e00fb004600dd000000fb003007980056
:10347000330037002e4090000000fb000080d10098
:10348000304798003e409000adff07008000780074
:103490002e009000808f500006003a009e40780079
:1034a0003e4090000088b9000000fb003007980003
:1034b000230037003e409000a1ff07000004780081
:1034c0003e4090000040e9009dff070000004400de
:1034d0008080d1002e009000808f500005003d00bc
:1034e0002e4090009e4090000140400020479800f0
:1034f000040037002e4090009e4090000140500094
:10350000204798001e4090000000fb000080d10082
:10351000104798001e4090000004e000d5ff3c00da
:103520002e4090000000fb000080d1008040780019
:103530001e4078000088b9000000fb0030079800aa
:103540003e0090004f0478000080fa000000060062
:103550000200fa00004f780001c4b3001ec0400012
:1035600077ff07000080fa00000006001000fa0054
:1035700060079800614f98006e48900070ff070048
:10358000200798006e489000f1ff07003007980070
:103590006e009000900078003e0090000181b9001c
:1035a0006e009000900090002e0090000180b90005
:1035b00000005100818059004209dd00ce00de008c
:1035c000810071004200dd0040079800510798001b
:1035d0005e009000100798006e0090009000780048
:1035e0002e0090000181b9006e00900090009000c4
:1035f0003e0090000180b900020040008380480036
:103600004209dd00ce00de00810071004200dd00d5
:1036100040079800510798005e009000000f780066
:103620006e0090009e009000010878006e009000ef
:103630001e017800120098000080fa0000000600c9
:103640000800fa00300798000040eb00504798004f
:1036500000c4b3004047980070c0b30020479800f2
:103660003e00900090007800e00f2000808f500016
:103670001c003c003e0090009000780010f02f00ed
:10368000808f5000170034003e00900090009000a2
:10369000e00f2000808f500012003c003e009000a0
:1036a0009000900010f02f00808f50000d0034002b
:1036b00060002000000f78003e00900010007800ad
:1036c000c600dd003e009000010878003e0090003a
:1036d00010009000c600dd003e0090001100980030
:1036e0001a0037000000eb00000f780017003700c9
:1036f0004e409000304798003e009000100090002f
:103700000000e000030034003e4090000040ea006a
:1037100030479800be4090003e00900093ff0700a5
:10372000de4090003e40900000c0400050479800ae
:103730004e4090000000fb000080d1004047980000
:103740002e4090000040e900204798002e40900055
:103750000004e000e6ff3c003e00900010009000f6
:103760000000e000030034005e4090000040e900eb
:10377000504798003e009000900078001e007800ae
:103780008088de003e009000010878003e00900036
:10379000900090001e0078008088de003e009000bf
:1037a000110098005e4090000040ea000000fb001d
:1037b0000080fa00000006000a00fa0040079800a6
:1037c0000040eb003047980000c4b3002047980049
:1037d00070c0b300004f78004e0090009000780059
:1037e000e00f2000808f50001c003c004e00900035
:1037f0009000780010f02f00808f500017003400e8
:103800004e00900090009000e00f2000808f50004c
:1038100012003c004e0090009000900010f02f002d
:10382000808f50000d0034006000200030079800a9
:103830004e00900010007800c600dd004e009000a1
:10384000010878004e00900010009000c600dd00d6
:103850004e00900011009800180037000000eb00a7
:1038600030079800150037002e4090001047980050
:103870004e009000100090000000e00003003400b3
:103880001e4090000040ea00104798009e409000c3
:103890004e00900035ff0700be4090001e40900093
:1038a00000c04000304798002e4090000000fb0010
:1038b0000080d100204798001e4fe9001e04e00060
:1038c000e9ff3c003e4090000040ea00304798008d
:1038d0003e4090000000fb004800dd0020079800fb
:1038e0004e009000100078000000e0000e00340050
:1038f0004e009000100178004e0090009000900063
:10390000e08b22000180b900801f780011000900bf
:103910004208d800800078004f0078002e00900008
:1039200001004000200798004e00900090007800b1
:103930003e0090008088de004e0090000108780074
:103940004e009000900090003e0090008088de00c5
:103950004e009000110098002e0090000080fa00a8
:10396000000006000a00fa00300798000000eb0093
:1039700020079800f00f200010079800300020006a
:10398000000f78003e0090000000e00009003a00bf
:103990000000eb0040079800230037003e00900035
:1039a0004200dd00300798002e0090000000e80083
:1039b000200798003e00900001002c0001006000ec
:1039c0000000e000f5ff32003e0090000000d10052
:1039d000300798000c0037001e0fe9001e00900011
:1039e0008000d1003e0090001e019000811f7800f1
:1039f000110009000280d80001017800cf00780092
:103a000000804000100798001e00e000f2ff3a001e
:103a10002e0090009e0090000008de001007980025
:103a20001e009000400798004e0090000080fa00b1
:103a3000000006001000fa003007980041079800c7
:103a40000000eb00200798000080eb0010079800b2
:103a500030002000000f78003e019000ce01900061
:103a6000f0ff2f0001002000800f5100818f5900ce
:103a70000f003e003e009000baff0700500798007c
:103a8000450037003e009000ce0090004209dd0066
:103a9000ce00de00810071004200dd00300798009a
:103aa000410798002e0090000000e80020079800d1
:103ab0003e009000ce0090000200200003002c0089
:103ac000000278008102780002007800830078000c
:103ad00000016200018062006102b8006407980082
:103ae000750798006e009000fe009000c000dd0099
:103af0000000200060079800710798006e00900099
:103b0000fe0090006112b8006407980075079800e5
:103b10006e019000fe019000020070008380700032
:103b2000e00f5000e08f5800d6ff32003e009000ba
:103b3000ce0090008100d1000080d30030079800b3
:103b4000410798000c0037001e0fe9001e0090008e
:103b50008001d1003e009000ce0090001e01900038
:103b6000811f7800110009004288d800cf0078003a
:103b700000804100100798001e00e000f2ff3a00ac
:103b80002e0090009e0090000008de0010079800b4
:103b90009e019000530798005e0090000080fa009c
:103ba000000006000800fa0020079800310798007e
:103bb000ae0090002e0090000089b900be00900079
:103bc0003e0090000088b900020040008380480059
:103bd000008fbe001e00be0096ff07000080fa00a6
:103be000000006000a00fa0020079800310798003c
:103bf00042079800ae0090002e0090000089b900a6
:103c0000be0090003e0090000088b9000201400014
:103c100083814800ce0090004e0090000088b900db
:103c20000200400083804800008fbe001e00be00de
:103c300080ff07000080fa00000006000000fa0084
:103c4000440c07003e0b070000102e00010020006e
:103c500087080700e222a8004f0c07000000eb00d5
:103c60000080fa00000006000000fa00e2c2bf0077
:103c70000080fb000000d1000004a2006140600051
:103c800061406000614060006140600000414000b0
:103c9000212e200091407800d0cfb30000c06000fa
:103ca00002407000e2e2b7000080fa000000060067
:103cb0000000fa000080fa00000006001e00fa0072
:103cc0000000eb00805388008e01070080458000d3
:103cd000e10f500078003a0040478000500f9800f4
:103ce00020478000600f98007a00470054fe0700cc
:103cf0000000fb00cf80de00100f9800210f98001d
:103d00009e08900000802900000ab8009e089000dc
:103d1000e0ff2f000088b900050178000001410094
:103d2000ae089000008029000088b9000001410021
:103d30008202780040a8de00cf80de00100f9800dd
:103d4000210f980030478000600f98007a004700ec
:103d50003bfe07000000fb00cf80de00300f980024
:103d6000410f9800be08900000802900000ab800aa
:103d7000be089000e0ff2f000088b9000501780020
:103d800000014100ce089000008029000088b900a1
:103d9000000141008202780040a8de00cf80de00f2
:103da000300f9800410f980000478000500f980096
:103db000d0468000600f98007a00470020fe070080
:103dc0000000fb00cf80de0070079800010f980014
:103dd000fe009000008026000009b8007e009000e0
:103de0006100b90003027800000242008e089000d2
:103df000008026000088b90000024200840178009b
:103e00004098de00cf80de0070079800010f980018
:103e10001e089000400bb0000043eb00150020008e
:103e200004fa2000037d2000821620008000eb00b1
:103e300098000700600798003e089000400bb00013
:103e40000043eb002500200004fa2000037d200041
:103e5000821620008000eb008e00070050079800bb
:103e60007e009000400bb0000043eb0035002000c6
:103e700004fa2000037d2000821620008000eb0061
:103e800084000700400798004e009000801f7800d3
:103e90005e009000801f78006e009000801f780008
:103ea000c0302900801f78000080200036f1070014
:103eb000e887570035003700404580000043eb009d
:103ec0001500200004fa2000037d2000420b200092
:103ed0008000eb006f00070030079800504580001d
:103ee0000043eb002500200004fa2000037d2000a1
:103ef000420b20008000eb006600070020079800be
:103f0000604580000043eb003500200004fa2000eb
:103f1000037d2000420b20008000eb005d000700c5
:103f200010079800704580000043eb00450020001a
:103f300004fa2000037d2000420620008000eb00f0
:103f400054000700000f780080458000801f780033
:103f50001e007800801f78001e009000801f7800ef
:103f60002e009000801f78003e009000801f780097
:103f700040892000801f7800a0312900801f780030
:103f80000080200000f10700ee875700dc070700e3
:103f900000548000e2012000110009000280d800d6
:103fa0008000fd000000e0000f003a00e2c2bf0008
:103fb0000080fb000000d1000004a200614060000e
:103fc000614060006140600061406000004140006d
:103fd000212e200091407800d0cfb30000c06000b7
:103fe00002407000e2e2b70000548000e2012000cd
:103ff000110009000280d8008000fd00e50f50008c
:104000000f003a00e2c2bf000080fb000000d100b8
:104010000004a200614060006140600061406000f7
:104020006140600000414000212e20009140780056
:10403000d0cfb30000c0600002407000e2e2b700e1
:104040000054800092012000110009000280d80075
:104050008000fd000000e0000c003a00e2c2bf005a
:104060000004a200614060006140600061406000a7
:1040700061416000212e200091407800e0cfb30024
:1040800000c0600002407000e2e2b7000080fa0069
:10409000000006001000fa00889fbe008a9fbe0044
:1040a00010079800210798003207980043079800ee
:1040b0005407980065079800664f98006e48900076
:1040c0000004e00006003200ae0090003e009000c8
:1040d000808040001e009000008050001007980073
:1040e0004e009000cf80de0033f507000005be00d3
:1040f0009e0090002e00900000805000cf80de00d7
:104100002df507000004be00de0090004e00900078
:1041100000805000cf80de0027f507000001be00c0
:104120000800be004ff507000004be003e009000ee
:10413000cf80de0020f507000001be000800be00b1
:104140007cf507000001be000a00be00bcf50700b8
:1041500018f60700000f78006e0090008000400005
:10416000208b200000804000100078009e0f50003f
:104170000a0032006e0090008000400080a4200001
:10418000008040001e0878006e0090008000400013
:10419000208b2000008040001e0878001e00780060
:1041a0004f05be004f04be000080fa00000006006c
:1041b0000200fa00889fbe008a9fbe008c9fbe004e
:1041c0000000eb008053880046478000374780009e
:1041d00028478000194780000a478000fb4680007e
:1041e000ec468000dd468000c0468000000f78006d
:1041f000e04e8000f14e8000c24e8000d34e800021
:10420000a44e8000b54e8000861f7800871f78007e
:10421000881f7800891f78008a1f78008b1f78001c
:104220008c1f78008d1f78001e037800861f780091
:10423000809fbe00829fbe00849fbe005033290035
:10424000801f7800008020004ff0070000fe2f0044
:10425000808747002a0707004f06be004f05be00b3
:104260004f04be000080fa00000006000400fa00bf
:1042700081538000008020000080400010407800c2
:10428000004f78000100e800805388001e04e00021
:1042900003003a000080eb0010079800020037008e
:1042a0001e80fb00100798001e0090000080fa009e
:1042b000000006000200fa000000eb00000f78008a
:1042c000090037001e0178009e0078000088200059
:1042d00000804000904078004089200000004100ac
:1042e000014878001e0fe800905380009e0f1000d8
:1042f000f4ff350090538000a05388000080fa003e
:10430000000006000400fa000000eb00000f780037
:104310000000eb0010079800440037009e0090005a
:10432000408920000080400090407800c0c2b30067
:1043300080cf50003a003a001e0078008000400014
:10434000808a2000808040000000eb008008780018
:104350001e0090000000e8001007980021003700c0
:104360009e0178001e00780080004000808a2000b6
:1043700000804000100078006a00b9000001780059
:1043800083804100808a200000804000020878007d
:104390009e0178001e00780080004000808a200086
:1043a00000804000100178009e00900040892000ad
:1043b00000804000104078000000fb0080004100b9
:1043c00000fd2f000081400083804100808a200092
:1043d00000804000020878001e0090000000e80005
:1043e00010079800a15380001e009000810f50001c
:1043f00007003d009e0090004089200000804000a2
:1044000090407800c0c2b30080cf5000d4ff3a0083
:104410001e0fe8001e0090000000e9001007980041
:104420001e0090000000e80010079800a1538000d3
:104430001e009000810f5000b8ff35000080fa0088
:10444000000006000200fa00004f78000000eb00b8
:1044500080538800a0c0b3009e4f100007003200b8
:104460009153800000882000008040001e487800a2
:104470000100e8009053880011003700925380003b
:104480000088200080004100a0c0b3008048780070
:104490000200e800905388009253800000882000ba
:1044a000800041000040eb00804878000200e800f6
:1044b000905388007fff07000000eb0090538800b6
:1044c0000080fa00000006000000fa000080fa00f8
:1044d000000006000e00fa00c05480000104200015
:1044e000010060000000e000da003200a24d800010
:1044f000b34d8000a1488000303220000180b90017
:104500000200400083804800a04d8800b14d880023
:10451000c24d8000d34d8000b14880003032200071
:104520000180b9000200400083804800c04d88002f
:10453000d14d8800e24d8000f34d8000c1488000dd
:10454000303220000180b900020040008380480022
:10455000e04d8800f14d8800424d8000534d8000b1
:10456000b14d8000601020000180b9004c0add00d0
:104570004400de0000007200c488de00020040003b
:1045800083804800404d8800514d8800624d800076
:10459000734d8000d14d8000601020000180b90073
:1045a0004c0add004400de0000007200c488de001a
:1045b0000200400083804800604d8800714d8800f3
:1045c000824d8000934d8000f14d800060102000ee
:1045d0000180b9004c0add004400de0000007200da
:1045e000c488de000200400083804800804d8800bf
:1045f000914d8800d04c80000000e0005e00340047
:10460000d04c80000000e900d04c8800a24d800012
:10461000b34d8000514e8000f02820000180b90089
:104620000200400083804800a04d8800b14d880002
:10463000c24d8000d34d8000614e8000f0282000e4
:104640000180b9000200400083804800c04d88000e
:10465000d14d8800e24d8000f34d8000714e800006
:10466000f02820000180b90002004000838048004b
:10467000e04d8800f14d8800424d8000534d800090
:10468000214e8000f02820000180b9000200400087
:1046900083804800404d8800514d8800624d800065
:1046a000734d8000314e8000f02820000180b90059
:1046b0000200400083804800604d8800714d8800f2
:1046c000824d8000934d8000414e8000f0282000f4
:1046d0000180b9000200400083804800804d8800be
:1046e000914d8800a24d8000b34d8000214e800086
:1046f000400620000088b90080007800606626002f
:104700000180b8000200400083804800e04c88002f
:10471000f14c8800c24d8000d34d8000314e8000a6
:10472000400620000088b9008000780060662600fe
:104730000180b8000200400083804800004d8800de
:10474000114d8800e24d8000f34d8000414e800005
:10475000400620000088b9008000780060662600ce
:104760000180b8000200400083804800204d88008e
:10477000314d8800130037000000eb00404a8800ec
:10478000404a8000304a8800304a8000204a880031
:1047900098aaa900a04d8000b14d8000e04c88008f
:1047a000f14c8800c04d8000d14d8000004d880044
:1047b000114d8800e04d8000f14d8000204d8800b3
:1047c000314d8800e40607000004e0003c003200a0
:1047d000c054800001082000010060000000e000db
:1047e0003700320098eaa900c0022000d04c8800af
:1047f000e14f8000504d800000805000204e880026
:10480000f14f8000704d800000805000304e8800d5
:1048100001508000904d800000805000404e880084
:1048200011508000b04d800000805000504e880034
:1048300021508000d04d800000805000604e8800e4
:1048400031508000f04d800000805000704e880094
:104850001b0037006000b800a04d8800b14d8800f3
:104860006000b800c04d8800d14d88006000b800dd
:10487000e04d8800f14d88006000b800e04c8800f1
:10488000f14c88006000b800004d8800114d880090
:104890006000b800204d8800314d88006000b800ed
:1048a000404d8800514d88006000b800604d880080
:1048b000714d88006000b800804d8800914d8800df
:1048c000f14c800050538000008050002007980079
:1048d000114d800060538000008050001007980048
:1048e000314d800070538000008f50001e01780011
:1048f0009e0090002e009000bafc0700004e880039
:10490000ae009000503f29000008b9003007980021
:1049100041079800ce0090004e0090000180b90041
:1049200050079800610798009e009000503f2900b2
:104930000008b90030079800410798005e01900018
:10494000ee019000ce0090004e0090000180b90072
:1049500002004000838048005007980061079800db
:10496000503f29001e0178000010b9003007980060
:10497000410798005e019000ee019000ce0090008b
:104980004e0090000180b900020040008380480082
:1049900050079800610798005e019000ee019000ba
:1049a000804d8000914d80000200400083804800cf
:1049b00050079800610798006e009000104e880024
:1049c000224d8000334d8000014e80003047800032
:1049d0000100b900420add00ce00de008100720055
:1049e0004200dd0002004000838048004088de0075
:1049f000cf80de00705388000080fa0000000600bf
:104a00000400fa00000f7800110798000000eb0086
:104a1000505088000000eb00705088001e007800a5
:104a2000605088001e00900050508800ba040700b3
:104a30000080fa00000006000200fa00881f7800db
:104a4000000f78001e0478001e0078005fee07005b
:104a500088007800eaff07004f0478000080fa0021
:104a6000000006000200fa00505080000000e00044
:104a70000f0032007150800060508000808f500025
:104a80000b003d007250800002007800800078002a
:104a90005050800000804000104078000080fb00f3
:104aa000000f78000200e800705088000400370012
:104ab0000000eb00505088000080eb00000f7800f1
:104ac0001e0078000080fa00000006000200fa00d4
:104ad000004f7800415480001e4078000100010022
:104ae0000080fa00000006002400fa00881f780009
:104af000d0468000c049880000478000d049880027
:104b00000000eb00e0498800130607000004e00005
:104b1000e5003200b30607000000eb00904e88006d
:104b200051fc0700a24e8000b34e8000004f800071
:104b3000114f80000000510081805900a205200023
:104b400003002000bcf3070050079800610798009d
:104b5000de0090007600470011009800c24e8000f1
:104b6000d34e8000204f8000314f80000000510064
:104b700081805900a205200003002000aef3070049
:104b80005007980061079800de00900040508000b8
:104b90000180b9004209dd00ce00de008100710015
:104ba0004200dd005007980061079800ee00900079
:104bb0007600470001087800e24e8000f34e800046
:104bc000404f8000514f800000005100818059000b
:104bd000420620000300200097f3070050079800ca
:104be00061079800de0090007600470021009800e1
:104bf000904f800080007800201d20000101b80047
:104c000000002800010020000200400083804800ce
:104c100070079800010f98000e50900080407800b7
:104c200000c4b30001405000104f9800c1548000f0
:104c300000022000008060000000e0001d00320043
:104c400001a12000914078001e48900001405000d2
:104c5000004f9800814f8000a050800000805000dd
:104c600030079800a14f8000b050800000805000b5
:104c700020079800760047009000780000518000df
:104c800000805000600f9800760047009000900070
:104c90001051800000805000700f9800760047008f
:104ca000a000900020518000008050001007980064
:104cb0000c0037000000eb00200798002e00900049
:104cc000300798003e009000004f98000000eb0075
:104cd000100798001e019000720f98007e08900047
:104ce000600f980098aaa8009e4890000e48900077
:104cf00000c04000fbe9b7001e48900010eab70072
:104d0000814f80003e00900000804000905088005d
:104d1000804f8000a0508800a14f80002e0090009e
:104d20000080400030508800a04f8000b0508800c4
:104d30009050800000047800fbc9bf0004fa07000f
:104d40000880b9004209dd00ce01de008301710058
:104d50004201dd00000028000100200002004000a8
:104d600083804800100f9800210f98002e089000b3
:104d7000105088009050800000047800fbc9bf00ec
:104d80006ff907000880b9004209dd00ce01de009e
:104d9000830171004201dd000000280001002000b5
:104da0000200400083804800100f9800210f9800f7
:104db0002e089000205088007c0047008e4890000c
:104dc000eaf9070076004700900078006e0890002e
:104dd00000804000e04f880076004700900090007f
:104de0007e08900000804000f04f88007600470069
:104df000a00090001e00900000804000005088003d
:104e000076004700100078000051880076004700c7
:104e1000100090001051880076004700200090009c
:104e20002051880021508000605380000080500095
:104e300010179800115080005053800000805000df
:104e4000001798003150800070538000008f500090
:104e50009e1090000e1090001e01780061fb07006c
:104e6000f0508800000220000e004000f4f9070016
:104e7000d0e9b7000e109000e0508800f15080009b
:104e8000d050800000805000c0508800f05080005a
:104e9000d05088004101070015080700994aa80072
:104ea00098eaa8000a003700a0002000904e880071
:104eb000c049800090498800d0498000a0498800fe
:104ec0000000eb00b0498800994aa80098aaa90000
:104ed0004f0478000080fa00000006000200fa008b
:104ee0000000eb00000f7800070037001e0078007c
:104ef0008000400080a42000808040000000eb0083
:104f0000800878001e0fe800900020009e0f10001f
:104f1000f6ff340000002800f0088800e1112000ae
:104f200091407800f0ccb30000c060000044a000c5
:104f30001ee1b700e10920009140780000c7b300ee
:104f400000c070009ee0b7008ea0a90000fc2f00fa
:104f5000c0168800d222a900c6a2a900c682a90054
:104f6000d802a900d842a900d882a9000080fa007e
:104f7000000006000200fa00004f78001e40780092
:104f800061406000614060004401dd00a12c200010
:104f900091407800f0ceb30000c060000240700085
:104fa000cae2b7000080fa00000006000000fa0024
:104fb0000000eb00e0528800810c2000e0be2e00d3
:104fc0000008b80001007800d00888000000eb005d
:104fd000a008880086a0a9008ea0a8000080fa0082
:104fe00000000600809fbe00829fbe000400fa0001
:104ff00021e1a800e05280006101b900028fbe00eb
:1050000090002000010020001e01be00800f510012
:10501000818f5900dc003e001e00be0000600100d0
:10502000090037001e003700340037004a003700ff
:1050300060003700760037008c003700a200370090
:10504000b8003700ce00370010002000e052880082
:10505000505280000000e0000800340050528000f0
:1050600080007800e0be2e000008b8000100780043
:10507000d0088800dc22a800060037004106200086
:10508000e0be2e000008b80001007800d0088800bb
:10509000dc22a9000000eb00a0088800ba0037005d
:1050a000dc22a90020002000e0528800605280002d
:1050b0000000e000080034006052800080007800aa
:1050c000e0be2e000008b80001007800d00888007b
:1050d000dc62a8000600370041062000e0be2e007a
:1050e0000008b80001007800d0088800dc62a90040
:1050f0000000eb00a0088800a3003700dc62a900d4
:1051000030002000e0528800705280000000e00073
:10511000080034007052800080007800e0be2e004d
:105120000008b80001007800d0088800dca2a800c0
:105130000600370041062000e0be2e000008b8003f
:1051400001007800d0088800dca2a9000000eb0074
:10515000a00888008c003700dca2a90040002000d5
:10516000e0528800805280000000e0000800340017
:105170008052800080007800e0be2e000008b80059
:1051800001007800d0088800d622a8000600370069
:1051900041062000e0be2e000008b80001007800a3
:1051a000d0088800d622a9000000eb00a0088800e3
:1051b00075003700d622a90050002000e052880078
:1051c000905280000000e0000800340090528000ff
:1051d00080007800e0be2e000008b80001007800d2
:1051e000d0088800caa2a8000600370041062000a7
:1051f000e0be2e000008b80001007800d00888004a
:10520000caa2a9000000eb00a00888005e003700d9
:10521000caa2a90060002000e0528800a0528000cd
:105220000000e00008003400a052800080007800f8
:10523000e0be2e000008b80001007800d008880009
:10524000ca82a8000600370041062000e0be2e00fa
:105250000008b80001007800d0088800ca82a900c0
:105260000000eb00a008880047003700ca82a900b0
:1052700070002000e0528800b05280000000e00082
:1052800008003400b052800080007800e0be2e009c
:105290000008b80001007800d0088800dc02a800ef
:1052a0000600370041062000e0be2e000008b800ce
:1052b00001007800d0088800dc02a9000000eb00a3
:1052c000a008880030003700dc02a9008000200020
:1052d000e0528800c05280000000e0000800340066
:1052e000c052800080007800e0be2e000008b800a8
:1052f00001007800d0088800dc42a80006003700d2
:1053000041062000e0be2e000008b8000100780031
:10531000d0088800dc42a9000000eb00a00888004b
:1053200019003700dc42a90090002000e0528800fc
:10533000d05280000000e00008003400d05280000d
:1053400080007800e0be2e000008b8000100780060
:10535000d0088800dc82a800060037004106200043
:10536000e0be2e000008b80001007800d0088800d8
:10537000dc82a9000000eb00a008880002003700d2
:10538000dc82a9008ea0a90086a0a9000080fa00f6
:105390004f01be004f00be00004006003c00fa0076
:1053a000c054800001802000010060000000e00087
:1053b0001a013a001150800070004700010878007f
:1053c000215080007000470011009800315080008b
:1053d0007000470021009800d04680008000ea005d
:1053e000200220000e0040000108780001478000e4
:1053f000200220000e00400011009800304780007d
:105400008000ea00200220000e00400021009800e9
:105410000000eb007007980053003700fe01900079
:105420007e009000f000470000004000608078009f
:105430000081d100f00047000380410002b07800f5
:10544000fe0190007e009000210220008e8040002e
:1054500000004000608078000081d100210220001f
:105460008e8040000380410002b07800fe01900071
:105470007e009000f000470000004000608178004e
:105480007e00900080004000e0a5200000804000e9
:105490001000780000014100f60047000380410041
:1054a00002b07800fe0190007e009000f0004700fe
:1054b00000004000608178007e0090008000400085
:1054c000e0a520000080400010007800000151009d
:1054d000fc0047000380410002b07800fe0190000c
:1054e0007e009000210220008e80400000004000dd
:1054f000608178007e0090008000400040a620007f
:10550000008040001000780000014100810220006e
:105510008e8040000380410002b07800fe019000c0
:105520007e009000210220008e804000000040009c
:10553000608178007e0090008000400040a620003e
:10554000008040001000780000015100e1022000be
:105550008e8040000380410002b078007e00900001
:105560000000e800700798007e009000e20f5000f5
:10557000aaff3400e00220000e0040001000780076
:10558000401f9800e00220000e0040001000900034
:10559000501f9800800320000e00400028f80700ec
:1055a000704798007c00470010007800401f98006a
:1055b0007c00470010009000501f980080032000de
:1055c0000e0040001ef80700004f98008e48900023
:1055d0007e40900000c05000604798006e409000f0
:1055e000dbf70700200798006e40900054f7070093
:1055f00010079800e00220000e00400020019000fb
:10560000e00220000e00400090009000e002200028
:105610000e0040001000780072f907005007980053
:105620007c004700200190007c0047009000900023
:105630007c004700100078006af9070060079800b6
:10564000de009000c0cc2000808f50007300360038
:105650006e0090004200de00301f98000000eb005a
:10566000201f98002e189000be1890005e01900038
:10567000811f7800110009004288d800cf0078000f
:10568000000f7800800220000e004000900078009b
:105690002e0090000181b900800220000e00400021
:1056a000900090001e0090000180b90000005100a1
:1056b000818059004209dd00ce00de0081007100ca
:1056c0004200dd00201f9800311f9800be18900096
:1056d0001e0078000180b8004209dd00ce00de0027
:1056e000810071004200dd00201f9800311f9800ea
:1056f0005253800076004700900078003e189000da
:105700008080500050538000008050004480de00b4
:105710000000410050538800800220000e0040002d
:10572000900078001e0090000181b90080022000e6
:105730000e004000900090002e0090000180b90003
:1057400002004000838048004209dd00ce00de00f8
:10575000810071004200dd00201f9800311f980079
:10576000be1890001e0078000180b8004209dd00dc
:10577000ce00de00810071004200dd00201f980095
:10578000311f98006253800076004700900090001f
:105790003e189000808050006053800000805000d0
:1057a0004480de0000004100605388000000eb00f0
:1057b00070079800160037007e0190007e00900070
:1057c000f000470000004000e081780082004100c6
:1057d000e0a5200000804000030878007e019000d2
:1057e0007e009000210220008e80400000004000da
:1057f000e08178008200410040a620000080400047
:10580000030878007e0090000000e8007007980010
:105810007e009000e20f5000e7ff34000080fa00a5
:10582000000006000000fa00c0fe2f00f0168800fd
:105830000000eb000008880000402b0010088800e2
:105840004110200091407800f0ccb30000c060000f
:105850000044a00004e1b7000421a9005109200080
:1058600091407800f0c8b30000c0600001c6b300ea
:105870000140700095e0b7008460a9008c60a8002a
:1058800005e1a8000000eb00c0088800000021002e
:10589000e00888000000eb00f053880001122000af
:1058a00091407800f0ccb30000c0600020e1b70068
:1058b0002021a900f10920009140780080cfb30099
:1058c00000c060006040b3009fe0b70086c0a90040
:1058d0008ec0a80021e1a900710920009140780044
:1058e000f0c8b30000c0600001c2b3000140700006
:1058f00097e0b70084e0a9008ce0a80088e0a90048
:10590000710a200091407800f0c8b30000c0600028
:1059100001c3b30001407000a7e0b700c841a9006f
:10592000c8c1bf000080fb004200de006140600093
:105930006140600000414000811c200091407800df
:10594000d0cfb30000c0600002407000c8e1b700d3
:10595000c8c1bf000080fb000000d10061406000b2
:1059600061416000811c200091407800e0cfb300cd
:1059700000c0600002407000c8e1b700c8c1a900c3
:10598000c8c1bf000080fb004600de00614060002f
:10599000614060004501dd00811c200091407800dd
:1059a000f0cdb30000c0600002407000c8e1b70055
:1059b000c8c1bf000080fb004500de006140600000
:1059c000614060004401dd00811c200091407800ae
:1059d000f0ceb30000c0600002407000c8e1b70024
:1059e00090e0a8000080fa00000006003600f800f1
:1059f000809fbe00829fbe00849fbe00869fbe0027
:105a00000000fa0021e1a8004400f800a054800042
:105a1000200288008460a90064fd07000054800013
:105a200082022000110009000280d8008000fd00e1
:105a30000000e00006003a0021e1a900f0538000d8
:105a4000e05388000000eb00f053880021e1a8003b
:105a50000054800042012000110009000280d8009b
:105a60008000fd000000e00001003a0090f807000f
